{
  "_format": "hh-sol-artifact-1",
  "contractName": "CrowdChainAccessNFT",
  "sourceName": "contracts/CrowdChainAccessNFT.sol",
  "abi": [
    {
      "inputs": [
        {
          "internalType": "uint256",
          "name": "_initialCreatorRate",
          "type": "uint256"
        },
        {
          "internalType": "uint256",
          "name": "_initialInvestorRate",
          "type": "uint256"
        },
        {
          "internalType": "uint256",
          "name": "_initialPremiumRate",
          "type": "uint256"
        },
        {
          "internalType": "string",
          "name": "_initialCreatorURI",
          "type": "string"
        },
        {
          "internalType": "string",
          "name": "_initialInvestorURI",
          "type": "string"
        },
        {
          "internalType": "string",
          "name": "_initialPremiumURI",
          "type": "string"
        }
      ],
      "stateMutability": "nonpayable",
      "type": "constructor"
    },
    {
      "inputs": [
        {
          "internalType": "address",
          "name": "sender",
          "type": "address"
        },
        {
          "internalType": "uint256",
          "name": "balance",
          "type": "uint256"
        },
        {
          "internalType": "uint256",
          "name": "needed",
          "type": "uint256"
        },
        {
          "internalType": "uint256",
          "name": "tokenId",
          "type": "uint256"
        }
      ],
      "name": "ERC1155InsufficientBalance",
      "type": "error"
    },
    {
      "inputs": [
        {
          "internalType": "address",
          "name": "approver",
          "type": "address"
        }
      ],
      "name": "ERC1155InvalidApprover",
      "type": "error"
    },
    {
      "inputs": [
        {
          "internalType": "uint256",
          "name": "idsLength",
          "type": "uint256"
        },
        {
          "internalType": "uint256",
          "name": "valuesLength",
          "type": "uint256"
        }
      ],
      "name": "ERC1155InvalidArrayLength",
      "type": "error"
    },
    {
      "inputs": [
        {
          "internalType": "address",
          "name": "operator",
          "type": "address"
        }
      ],
      "name": "ERC1155InvalidOperator",
      "type": "error"
    },
    {
      "inputs": [
        {
          "internalType": "address",
          "name": "receiver",
          "type": "address"
        }
      ],
      "name": "ERC1155InvalidReceiver",
      "type": "error"
    },
    {
      "inputs": [
        {
          "internalType": "address",
          "name": "sender",
          "type": "address"
        }
      ],
      "name": "ERC1155InvalidSender",
      "type": "error"
    },
    {
      "inputs": [
        {
          "internalType": "address",
          "name": "operator",
          "type": "address"
        },
        {
          "internalType": "address",
          "name": "owner",
          "type": "address"
        }
      ],
      "name": "ERC1155MissingApprovalForAll",
      "type": "error"
    },
    {
      "inputs": [
        {
          "internalType": "address",
          "name": "owner",
          "type": "address"
        }
      ],
      "name": "OwnableInvalidOwner",
      "type": "error"
    },
    {
      "inputs": [
        {
          "internalType": "address",
          "name": "account",
          "type": "address"
        }
      ],
      "name": "OwnableUnauthorizedAccount",
      "type": "error"
    },
    {
      "anonymous": false,
      "inputs": [
        {
          "indexed": true,
          "internalType": "address",
          "name": "account",
          "type": "address"
        },
        {
          "indexed": true,
          "internalType": "address",
          "name": "operator",
          "type": "address"
        },
        {
          "indexed": false,
          "internalType": "bool",
          "name": "approved",
          "type": "bool"
        }
      ],
      "name": "ApprovalForAll",
      "type": "event"
    },
    {
      "anonymous": false,
      "inputs": [
        {
          "indexed": true,
          "internalType": "address",
          "name": "user",
          "type": "address"
        },
        {
          "indexed": true,
          "internalType": "uint256",
          "name": "tokenId",
          "type": "uint256"
        }
      ],
      "name": "NFTMinted",
      "type": "event"
    },
    {
      "anonymous": false,
      "inputs": [
        {
          "indexed": true,
          "internalType": "address",
          "name": "previousOwner",
          "type": "address"
        },
        {
          "indexed": true,
          "internalType": "address",
          "name": "newOwner",
          "type": "address"
        }
      ],
      "name": "OwnershipTransferred",
      "type": "event"
    },
    {
      "anonymous": false,
      "inputs": [
        {
          "indexed": false,
          "internalType": "uint256",
          "name": "newCreatorRate",
          "type": "uint256"
        },
        {
          "indexed": false,
          "internalType": "uint256",
          "name": "newInvestorRate",
          "type": "uint256"
        },
        {
          "indexed": false,
          "internalType": "uint256",
          "name": "newPremiumRate",
          "type": "uint256"
        }
      ],
      "name": "RateChanged",
      "type": "event"
    },
    {
      "anonymous": false,
      "inputs": [
        {
          "indexed": true,
          "internalType": "address",
          "name": "operator",
          "type": "address"
        },
        {
          "indexed": true,
          "internalType": "address",
          "name": "from",
          "type": "address"
        },
        {
          "indexed": true,
          "internalType": "address",
          "name": "to",
          "type": "address"
        },
        {
          "indexed": false,
          "internalType": "uint256[]",
          "name": "ids",
          "type": "uint256[]"
        },
        {
          "indexed": false,
          "internalType": "uint256[]",
          "name": "values",
          "type": "uint256[]"
        }
      ],
      "name": "TransferBatch",
      "type": "event"
    },
    {
      "anonymous": false,
      "inputs": [
        {
          "indexed": true,
          "internalType": "address",
          "name": "operator",
          "type": "address"
        },
        {
          "indexed": true,
          "internalType": "address",
          "name": "from",
          "type": "address"
        },
        {
          "indexed": true,
          "internalType": "address",
          "name": "to",
          "type": "address"
        },
        {
          "indexed": false,
          "internalType": "uint256",
          "name": "id",
          "type": "uint256"
        },
        {
          "indexed": false,
          "internalType": "uint256",
          "name": "value",
          "type": "uint256"
        }
      ],
      "name": "TransferSingle",
      "type": "event"
    },
    {
      "anonymous": false,
      "inputs": [
        {
          "indexed": false,
          "internalType": "string",
          "name": "value",
          "type": "string"
        },
        {
          "indexed": true,
          "internalType": "uint256",
          "name": "id",
          "type": "uint256"
        }
      ],
      "name": "URI",
      "type": "event"
    },
    {
      "anonymous": false,
      "inputs": [
        {
          "indexed": false,
          "internalType": "string",
          "name": "newCreatorURI",
          "type": "string"
        },
        {
          "indexed": false,
          "internalType": "string",
          "name": "newInvestorURI",
          "type": "string"
        },
        {
          "indexed": false,
          "internalType": "string",
          "name": "newPremiumURI",
          "type": "string"
        }
      ],
      "name": "URIsSet",
      "type": "event"
    },
    {
      "inputs": [],
      "name": "CREATOR_ID",
      "outputs": [
        {
          "internalType": "uint256",
          "name": "",
          "type": "uint256"
        }
      ],
      "stateMutability": "view",
      "type": "function"
    },
    {
      "inputs": [],
      "name": "INVESTOR_ID",
      "outputs": [
        {
          "internalType": "uint256",
          "name": "",
          "type": "uint256"
        }
      ],
      "stateMutability": "view",
      "type": "function"
    },
    {
      "inputs": [],
      "name": "PREMIUM_ID",
      "outputs": [
        {
          "internalType": "uint256",
          "name": "",
          "type": "uint256"
        }
      ],
      "stateMutability": "view",
      "type": "function"
    },
    {
      "inputs": [
        {
          "internalType": "address",
          "name": "account",
          "type": "address"
        },
        {
          "internalType": "uint256",
          "name": "id",
          "type": "uint256"
        }
      ],
      "name": "balanceOf",
      "outputs": [
        {
          "internalType": "uint256",
          "name": "",
          "type": "uint256"
        }
      ],
      "stateMutability": "view",
      "type": "function"
    },
    {
      "inputs": [
        {
          "internalType": "address[]",
          "name": "accounts",
          "type": "address[]"
        },
        {
          "internalType": "uint256[]",
          "name": "ids",
          "type": "uint256[]"
        }
      ],
      "name": "balanceOfBatch",
      "outputs": [
        {
          "internalType": "uint256[]",
          "name": "",
          "type": "uint256[]"
        }
      ],
      "stateMutability": "view",
      "type": "function"
    },
    {
      "inputs": [],
      "name": "creatorNFTRate",
      "outputs": [
        {
          "internalType": "uint256",
          "name": "",
          "type": "uint256"
        }
      ],
      "stateMutability": "view",
      "type": "function"
    },
    {
      "inputs": [],
      "name": "investorNFTRate",
      "outputs": [
        {
          "internalType": "uint256",
          "name": "",
          "type": "uint256"
        }
      ],
      "stateMutability": "view",
      "type": "function"
    },
    {
      "inputs": [
        {
          "internalType": "address",
          "name": "account",
          "type": "address"
        },
        {
          "internalType": "address",
          "name": "operator",
          "type": "address"
        }
      ],
      "name": "isApprovedForAll",
      "outputs": [
        {
          "internalType": "bool",
          "name": "",
          "type": "bool"
        }
      ],
      "stateMutability": "view",
      "type": "function"
    },
    {
      "inputs": [],
      "name": "mintCreatorNFT",
      "outputs": [],
      "stateMutability": "payable",
      "type": "function"
    },
    {
      "inputs": [],
      "name": "mintInvestorNFT",
      "outputs": [],
      "stateMutability": "payable",
      "type": "function"
    },
    {
      "inputs": [],
      "name": "mintPremiumNFT",
      "outputs": [],
      "stateMutability": "payable",
      "type": "function"
    },
    {
      "inputs": [],
      "name": "owner",
      "outputs": [
        {
          "internalType": "address",
          "name": "",
          "type": "address"
        }
      ],
      "stateMutability": "view",
      "type": "function"
    },
    {
      "inputs": [],
      "name": "premiumNFTRate",
      "outputs": [
        {
          "internalType": "uint256",
          "name": "",
          "type": "uint256"
        }
      ],
      "stateMutability": "view",
      "type": "function"
    },
    {
      "inputs": [],
      "name": "renounceOwnership",
      "outputs": [],
      "stateMutability": "nonpayable",
      "type": "function"
    },
    {
      "inputs": [
        {
          "internalType": "address",
          "name": "from",
          "type": "address"
        },
        {
          "internalType": "address",
          "name": "to",
          "type": "address"
        },
        {
          "internalType": "uint256[]",
          "name": "ids",
          "type": "uint256[]"
        },
        {
          "internalType": "uint256[]",
          "name": "values",
          "type": "uint256[]"
        },
        {
          "internalType": "bytes",
          "name": "data",
          "type": "bytes"
        }
      ],
      "name": "safeBatchTransferFrom",
      "outputs": [],
      "stateMutability": "nonpayable",
      "type": "function"
    },
    {
      "inputs": [
        {
          "internalType": "address",
          "name": "from",
          "type": "address"
        },
        {
          "internalType": "address",
          "name": "to",
          "type": "address"
        },
        {
          "internalType": "uint256",
          "name": "id",
          "type": "uint256"
        },
        {
          "internalType": "uint256",
          "name": "value",
          "type": "uint256"
        },
        {
          "internalType": "bytes",
          "name": "data",
          "type": "bytes"
        }
      ],
      "name": "safeTransferFrom",
      "outputs": [],
      "stateMutability": "nonpayable",
      "type": "function"
    },
    {
      "inputs": [
        {
          "internalType": "address",
          "name": "operator",
          "type": "address"
        },
        {
          "internalType": "bool",
          "name": "approved",
          "type": "bool"
        }
      ],
      "name": "setApprovalForAll",
      "outputs": [],
      "stateMutability": "nonpayable",
      "type": "function"
    },
    {
      "inputs": [
        {
          "internalType": "uint256",
          "name": "_newCreatorRate",
          "type": "uint256"
        },
        {
          "internalType": "uint256",
          "name": "_newInvestorRate",
          "type": "uint256"
        },
        {
          "internalType": "uint256",
          "name": "_newPremiumRate",
          "type": "uint256"
        }
      ],
      "name": "setRates",
      "outputs": [],
      "stateMutability": "nonpayable",
      "type": "function"
    },
    {
      "inputs": [
        {
          "internalType": "string",
          "name": "_newCreatorURI",
          "type": "string"
        },
        {
          "internalType": "string",
          "name": "_newInvestorURI",
          "type": "string"
        },
        {
          "internalType": "string",
          "name": "_newPremiumURI",
          "type": "string"
        }
      ],
      "name": "setTokenURIs",
      "outputs": [],
      "stateMutability": "nonpayable",
      "type": "function"
    },
    {
      "inputs": [
        {
          "internalType": "bytes4",
          "name": "interfaceId",
          "type": "bytes4"
        }
      ],
      "name": "supportsInterface",
      "outputs": [
        {
          "internalType": "bool",
          "name": "",
          "type": "bool"
        }
      ],
      "stateMutability": "view",
      "type": "function"
    },
    {
      "inputs": [
        {
          "internalType": "address",
          "name": "newOwner",
          "type": "address"
        }
      ],
      "name": "transferOwnership",
      "outputs": [],
      "stateMutability": "nonpayable",
      "type": "function"
    },
    {
      "inputs": [
        {
          "internalType": "uint256",
          "name": "_id",
          "type": "uint256"
        }
      ],
      "name": "uri",
      "outputs": [
        {
          "internalType": "string",
          "name": "",
          "type": "string"
        }
      ],
      "stateMutability": "view",
      "type": "function"
    },
    {
      "inputs": [],
      "name": "withdraw",
      "outputs": [],
      "stateMutability": "nonpayable",
      "type": "function"
    }
  ],
  "bytecode": "0x60806040523480156200001157600080fd5b5060405162003c2738038062003c278339818101604052810190620000379190620003e1565b336040518060200160405280600081525062000059816200013860201b60201c565b50600073ffffffffffffffffffffffffffffffffffffffff168173ffffffffffffffffffffffffffffffffffffffff1603620000cf5760006040517f1e4fbdf7000000000000000000000000000000000000000000000000000000008152600401620000c691906200051f565b60405180910390fd5b620000e0816200014d60201b60201c565b5085600481905550846005819055508360068190555082600790816200010791906200077d565b5081600890816200011991906200077d565b5080600990816200012b91906200077d565b5050505050505062000864565b80600290816200014991906200077d565b5050565b6000600360009054906101000a900473ffffffffffffffffffffffffffffffffffffffff16905081600360006101000a81548173ffffffffffffffffffffffffffffffffffffffff021916908373ffffffffffffffffffffffffffffffffffffffff1602179055508173ffffffffffffffffffffffffffffffffffffffff168173ffffffffffffffffffffffffffffffffffffffff167f8be0079c531659141344cd1fd0a4f28419497f9722a3daafe3b4186f6b6457e060405160405180910390a35050565b6000604051905090565b600080fd5b600080fd5b6000819050919050565b6200023c8162000227565b81146200024857600080fd5b50565b6000815190506200025c8162000231565b92915050565b600080fd5b600080fd5b6000601f19601f8301169050919050565b7f4e487b7100000000000000000000000000000000000000000000000000000000600052604160045260246000fd5b620002b7826200026c565b810181811067ffffffffffffffff82111715620002d957620002d86200027d565b5b80604052505050565b6000620002ee62000213565b9050620002fc8282620002ac565b919050565b600067ffffffffffffffff8211156200031f576200031e6200027d565b5b6200032a826200026c565b9050602081019050919050565b60005b83811015620003575780820151818401526020810190506200033a565b60008484015250505050565b60006200037a620003748462000301565b620002e2565b90508281526020810184848401111562000399576200039862000267565b5b620003a684828562000337565b509392505050565b600082601f830112620003c657620003c562000262565b5b8151620003d884826020860162000363565b91505092915050565b60008060008060008060c087890312156200040157620004006200021d565b5b60006200041189828a016200024b565b96505060206200042489828a016200024b565b95505060406200043789828a016200024b565b945050606087015167ffffffffffffffff8111156200045b576200045a62000222565b5b6200046989828a01620003ae565b935050608087015167ffffffffffffffff8111156200048d576200048c62000222565b5b6200049b89828a01620003ae565b92505060a087015167ffffffffffffffff811115620004bf57620004be62000222565b5b620004cd89828a01620003ae565b9150509295509295509295565b600073ffffffffffffffffffffffffffffffffffffffff82169050919050565b60006200050782620004da565b9050919050565b6200051981620004fa565b82525050565b60006020820190506200053660008301846200050e565b92915050565b600081519050919050565b7f4e487b7100000000000000000000000000000000000000000000000000000000600052602260045260246000fd5b600060028204905060018216806200058f57607f821691505b602082108103620005a557620005a462000547565b5b50919050565b60008190508160005260206000209050919050565b60006020601f8301049050919050565b600082821b905092915050565b6000600883026200060f7fffffffffffffffffffffffffffffffffffffffffffffffffffffffffffffffff82620005d0565b6200061b8683620005d0565b95508019841693508086168417925050509392505050565b6000819050919050565b60006200065e62000658620006528462000227565b62000633565b62000227565b9050919050565b6000819050919050565b6200067a836200063d565b62000692620006898262000665565b848454620005dd565b825550505050565b600090565b620006a96200069a565b620006b68184846200066f565b505050565b5b81811015620006de57620006d26000826200069f565b600181019050620006bc565b5050565b601f8211156200072d57620006f781620005ab565b6200070284620005c0565b8101602085101562000712578190505b6200072a6200072185620005c0565b830182620006bb565b50505b505050565b600082821c905092915050565b6000620007526000198460080262000732565b1980831691505092915050565b60006200076d83836200073f565b9150826002028217905092915050565b62000788826200053c565b67ffffffffffffffff811115620007a457620007a36200027d565b5b620007b0825462000576565b620007bd828285620006e2565b600060209050601f831160018114620007f55760008415620007e0578287015190505b620007ec85826200075f565b8655506200085c565b601f1984166200080586620005ab565b60005b828110156200082f5784890151825560018201915060208501945060208101905062000808565b868310156200084f57848901516200084b601f8916826200073f565b8355505b6001600288020188555050505b505050505050565b6133b380620008746000396000f3fe60806040526004361061013f5760003560e01c806389f94921116100b6578063d004f38b1161006f578063d004f38b146103d6578063e985e9c5146103ff578063eae5abc41461043c578063ee2e806214610467578063f242432a14610492578063f2fde38b146104bb5761013f565b806389f94921146103395780638da5cb5b1461036457806393b8a6231461038f5780639c0eeebc14610399578063a22cb465146103a3578063a5446cc9146103cc5761013f565b80632f8c5912116101085780632f8c59121461024f5780633ccfd60b1461027a57806348ed5b99146102915780634e1273f4146102bc5780636e2ad442146102f9578063715018a6146103225761013f565b8062fdd58e1461014457806301ffc9a7146101815780630e89341c146101be5780632d509790146101fb5780632eb2c2d614610226575b600080fd5b34801561015057600080fd5b5061016b60048036038101906101669190611f2b565b6104e4565b6040516101789190611f7a565b60405180910390f35b34801561018d57600080fd5b506101a860048036038101906101a39190611fed565b61053e565b6040516101b59190612035565b60405180910390f35b3480156101ca57600080fd5b506101e560048036038101906101e09190612050565b610620565b6040516101f2919061210d565b60405180910390f35b34801561020757600080fd5b50610210610842565b60405161021d9190611f7a565b60405180910390f35b34801561023257600080fd5b5061024d6004803603810190610248919061232c565b610847565b005b34801561025b57600080fd5b506102646108ef565b6040516102719190611f7a565b60405180910390f35b34801561028657600080fd5b5061028f6108f4565b005b34801561029d57600080fd5b506102a66109b2565b6040516102b39190611f7a565b60405180910390f35b3480156102c857600080fd5b506102e360048036038101906102de91906124be565b6109b8565b6040516102f091906125f4565b60405180910390f35b34801561030557600080fd5b50610320600480360381019061031b91906126b7565b610ac1565b005b34801561032e57600080fd5b50610337610b39565b005b34801561034557600080fd5b5061034e610b4d565b60405161035b9190611f7a565b60405180910390f35b34801561037057600080fd5b50610379610b52565b604051610386919061276d565b60405180910390f35b610397610b7c565b005b6103a1610c72565b005b3480156103af57600080fd5b506103ca60048036038101906103c591906127b4565b610d68565b005b6103d4610d7e565b005b3480156103e257600080fd5b506103fd60048036038101906103f891906127f4565b610e73565b005b34801561040b57600080fd5b5061042660048036038101906104219190612847565b610ed0565b6040516104339190612035565b60405180910390f35b34801561044857600080fd5b50610451610f64565b60405161045e9190611f7a565b60405180910390f35b34801561047357600080fd5b5061047c610f6a565b6040516104899190611f7a565b60405180910390f35b34801561049e57600080fd5b506104b960048036038101906104b49190612887565b610f70565b005b3480156104c757600080fd5b506104e260048036038101906104dd919061291e565b611018565b005b600080600083815260200190815260200160002060008473ffffffffffffffffffffffffffffffffffffffff1673ffffffffffffffffffffffffffffffffffffffff16815260200190815260200160002054905092915050565b60007fd9b67a26000000000000000000000000000000000000000000000000000000007bffffffffffffffffffffffffffffffffffffffffffffffffffffffff1916827bffffffffffffffffffffffffffffffffffffffffffffffffffffffff1916148061060957507f0e89341c000000000000000000000000000000000000000000000000000000007bffffffffffffffffffffffffffffffffffffffffffffffffffffffff1916827bffffffffffffffffffffffffffffffffffffffffffffffffffffffff1916145b8061061957506106188261109e565b5b9050919050565b606060008214806106315750600182145b8061063c5750600282145b61067b576040517f08c379a000000000000000000000000000000000000000000000000000000000815260040161067290612997565b60405180910390fd5b600082036107155760078054610690906129e6565b80601f01602080910402602001604051908101604052809291908181526020018280546106bc906129e6565b80156107095780601f106106de57610100808354040283529160200191610709565b820191906000526020600020905b8154815290600101906020018083116106ec57829003601f168201915b5050505050905061083d565b600182036107af576008805461072a906129e6565b80601f0160208091040260200160405190810160405280929190818152602001828054610756906129e6565b80156107a35780601f10610778576101008083540402835291602001916107a3565b820191906000526020600020905b81548152906001019060200180831161078657829003601f168201915b5050505050905061083d565b600980546107bc906129e6565b80601f01602080910402602001604051908101604052809291908181526020018280546107e8906129e6565b80156108355780601f1061080a57610100808354040283529160200191610835565b820191906000526020600020905b81548152906001019060200180831161081857829003601f168201915b505050505090505b919050565b600181565b6000610851611108565b90508073ffffffffffffffffffffffffffffffffffffffff168673ffffffffffffffffffffffffffffffffffffffff161415801561089657506108948682610ed0565b155b156108da5780866040517fe237d9220000000000000000000000000000000000000000000000000000000081526004016108d1929190612a17565b60405180910390fd5b6108e78686868686611110565b505050505050565b600281565b6108fc611208565b6000610906610b52565b73ffffffffffffffffffffffffffffffffffffffff164760405161092990612a71565b60006040518083038185875af1925050503d8060008114610966576040519150601f19603f3d011682016040523d82523d6000602084013e61096b565b606091505b50509050806109af576040517f08c379a00000000000000000000000000000000000000000000000000000000081526004016109a690612ad2565b60405180910390fd5b50565b60055481565b60608151835114610a0457815183516040517f5b0599910000000000000000000000000000000000000000000000000000000081526004016109fb929190612af2565b60405180910390fd5b6000835167ffffffffffffffff811115610a2157610a20612134565b5b604051908082528060200260200182016040528015610a4f5781602001602082028036833780820191505090505b50905060005b8451811015610ab657610a8c610a74828761128f90919063ffffffff16565b610a8783876112a390919063ffffffff16565b6104e4565b828281518110610a9f57610a9e612b1b565b5b602002602001018181525050806001019050610a55565b508091505092915050565b610ac9611208565b8260079081610ad89190612cf6565b508160089081610ae89190612cf6565b508060099081610af89190612cf6565b507f0fd821017037914462e08bc37e2a535e42fa036e4bce82af3266041e879350bf838383604051610b2c93929190612dc8565b60405180910390a1505050565b610b41611208565b610b4b60006112b7565b565b600081565b6000600360009054906101000a900473ffffffffffffffffffffffffffffffffffffffff16905090565b600654341015610bc1576040517f08c379a0000000000000000000000000000000000000000000000000000000008152600401610bb890612e86565b60405180910390fd5b6000610bce3360026104e4565b14610c0e576040517f08c379a0000000000000000000000000000000000000000000000000000000008152600401610c0590612ef2565b60405180910390fd5b610c2b33600260016040518060200160405280600081525061137d565b60023373ffffffffffffffffffffffffffffffffffffffff167f4cc0a9c4a99ddc700de1af2c9f916a7cbfdb71f14801ccff94061ad1ef8a804060405160405180910390a3565b600454341015610cb7576040517f08c379a0000000000000000000000000000000000000000000000000000000008152600401610cae90612f84565b60405180910390fd5b6000610cc43360006104e4565b14610d04576040517f08c379a0000000000000000000000000000000000000000000000000000000008152600401610cfb90612ff0565b60405180910390fd5b610d2133600060016040518060200160405280600081525061137d565b60003373ffffffffffffffffffffffffffffffffffffffff167f4cc0a9c4a99ddc700de1af2c9f916a7cbfdb71f14801ccff94061ad1ef8a804060405160405180910390a3565b610d7a610d73611108565b8383611416565b5050565b600554341015610dc3576040517f08c379a0000000000000000000000000000000000000000000000000000000008152600401610dba90613082565b60405180910390fd5b6000610dd03360016104e4565b14610e10576040517f08c379a0000000000000000000000000000000000000000000000000000000008152600401610e07906130ee565b60405180910390fd5b610e2c336001806040518060200160405280600081525061137d565b60013373ffffffffffffffffffffffffffffffffffffffff167f4cc0a9c4a99ddc700de1af2c9f916a7cbfdb71f14801ccff94061ad1ef8a804060405160405180910390a3565b610e7b611208565b8260048190555081600581905550806006819055507f15e24d50989c907d87af74581ed18ae27abf8082b1ce122790dae9750085d747838383604051610ec39392919061310e565b60405180910390a1505050565b6000600160008473ffffffffffffffffffffffffffffffffffffffff1673ffffffffffffffffffffffffffffffffffffffff16815260200190815260200160002060008373ffffffffffffffffffffffffffffffffffffffff1673ffffffffffffffffffffffffffffffffffffffff16815260200190815260200160002060009054906101000a900460ff16905092915050565b60065481565b60045481565b6000610f7a611108565b90508073ffffffffffffffffffffffffffffffffffffffff168673ffffffffffffffffffffffffffffffffffffffff1614158015610fbf5750610fbd8682610ed0565b155b156110035780866040517fe237d922000000000000000000000000000000000000000000000000000000008152600401610ffa929190612a17565b60405180910390fd5b6110108686868686611586565b505050505050565b611020611208565b600073ffffffffffffffffffffffffffffffffffffffff168173ffffffffffffffffffffffffffffffffffffffff16036110925760006040517f1e4fbdf7000000000000000000000000000000000000000000000000000000008152600401611089919061276d565b60405180910390fd5b61109b816112b7565b50565b60007f01ffc9a7000000000000000000000000000000000000000000000000000000007bffffffffffffffffffffffffffffffffffffffffffffffffffffffff1916827bffffffffffffffffffffffffffffffffffffffffffffffffffffffff1916149050919050565b600033905090565b600073ffffffffffffffffffffffffffffffffffffffff168473ffffffffffffffffffffffffffffffffffffffff16036111825760006040517f57f447ce000000000000000000000000000000000000000000000000000000008152600401611179919061276d565b60405180910390fd5b600073ffffffffffffffffffffffffffffffffffffffff168573ffffffffffffffffffffffffffffffffffffffff16036111f45760006040517f01a835140000000000000000000000000000000000000000000000000000000081526004016111eb919061276d565b60405180910390fd5b6112018585858585611691565b5050505050565b611210611108565b73ffffffffffffffffffffffffffffffffffffffff1661122e610b52565b73ffffffffffffffffffffffffffffffffffffffff161461128d57611251611108565b6040517f118cdaa7000000000000000000000000000000000000000000000000000000008152600401611284919061276d565b60405180910390fd5b565b600060208202602084010151905092915050565b600060208202602084010151905092915050565b6000600360009054906101000a900473ffffffffffffffffffffffffffffffffffffffff16905081600360006101000a81548173ffffffffffffffffffffffffffffffffffffffff021916908373ffffffffffffffffffffffffffffffffffffffff1602179055508173ffffffffffffffffffffffffffffffffffffffff168173ffffffffffffffffffffffffffffffffffffffff167f8be0079c531659141344cd1fd0a4f28419497f9722a3daafe3b4186f6b6457e060405160405180910390a35050565b600073ffffffffffffffffffffffffffffffffffffffff168473ffffffffffffffffffffffffffffffffffffffff16036113ef5760006040517f57f447ce0000000000000000000000000000000000000000000000000000000081526004016113e6919061276d565b60405180910390fd5b6000806113fc8585611743565b9150915061140e600087848487611691565b505050505050565b600073ffffffffffffffffffffffffffffffffffffffff168273ffffffffffffffffffffffffffffffffffffffff16036114885760006040517fced3e10000000000000000000000000000000000000000000000000000000000815260040161147f919061276d565b60405180910390fd5b80600160008573ffffffffffffffffffffffffffffffffffffffff1673ffffffffffffffffffffffffffffffffffffffff16815260200190815260200160002060008473ffffffffffffffffffffffffffffffffffffffff1673ffffffffffffffffffffffffffffffffffffffff16815260200190815260200160002060006101000a81548160ff0219169083151502179055508173ffffffffffffffffffffffffffffffffffffffff168373ffffffffffffffffffffffffffffffffffffffff167f17307eab39ab6107e8899845ad3d59bd9653f200f220920489ca2b5937696c31836040516115799190612035565b60405180910390a3505050565b600073ffffffffffffffffffffffffffffffffffffffff168473ffffffffffffffffffffffffffffffffffffffff16036115f85760006040517f57f447ce0000000000000000000000000000000000000000000000000000000081526004016115ef919061276d565b60405180910390fd5b600073ffffffffffffffffffffffffffffffffffffffff168573ffffffffffffffffffffffffffffffffffffffff160361166a5760006040517f01a83514000000000000000000000000000000000000000000000000000000008152600401611661919061276d565b60405180910390fd5b6000806116778585611743565b915091506116888787848487611691565b50505050505050565b61169d85858585611773565b600073ffffffffffffffffffffffffffffffffffffffff168473ffffffffffffffffffffffffffffffffffffffff161461173c5760006116db611108565b9050600184510361172b5760006116fc6000866112a390919063ffffffff16565b905060006117146000866112a390919063ffffffff16565b9050611724838989858589611b1b565b505061173a565b611739818787878787611ccf565b5b505b5050505050565b60608060405191506001825283602083015260408201905060018152826020820152604081016040529250929050565b80518251146117bd57815181516040517f5b0599910000000000000000000000000000000000000000000000000000000081526004016117b4929190612af2565b60405180910390fd5b60006117c7611108565b905060005b83518110156119d65760006117ea82866112a390919063ffffffff16565b9050600061180183866112a390919063ffffffff16565b9050600073ffffffffffffffffffffffffffffffffffffffff168873ffffffffffffffffffffffffffffffffffffffff161461192e57600080600084815260200190815260200160002060008a73ffffffffffffffffffffffffffffffffffffffff1673ffffffffffffffffffffffffffffffffffffffff168152602001908152602001600020549050818110156118d657888183856040517f03dee4c50000000000000000000000000000000000000000000000000000000081526004016118cd9493929190613145565b60405180910390fd5b81810360008085815260200190815260200160002060008b73ffffffffffffffffffffffffffffffffffffffff1673ffffffffffffffffffffffffffffffffffffffff16815260200190815260200160002081905550505b600073ffffffffffffffffffffffffffffffffffffffff168773ffffffffffffffffffffffffffffffffffffffff16146119c9578060008084815260200190815260200160002060008973ffffffffffffffffffffffffffffffffffffffff1673ffffffffffffffffffffffffffffffffffffffff16815260200190815260200160002060008282546119c191906131b9565b925050819055505b50508060010190506117cc565b506001835103611a955760006119f66000856112a390919063ffffffff16565b90506000611a0e6000856112a390919063ffffffff16565b90508573ffffffffffffffffffffffffffffffffffffffff168773ffffffffffffffffffffffffffffffffffffffff168473ffffffffffffffffffffffffffffffffffffffff167fc3d58168c5ae7397731d063d5bbf3d657854427343f4c083240f7aacaa2d0f628585604051611a86929190612af2565b60405180910390a45050611b14565b8373ffffffffffffffffffffffffffffffffffffffff168573ffffffffffffffffffffffffffffffffffffffff168273ffffffffffffffffffffffffffffffffffffffff167f4a39dc06d4c0dbc64b70af90fd698a233a518aa5d07e595d983b8c0526c8f7fb8686604051611b0b9291906131ed565b60405180910390a45b5050505050565b60008473ffffffffffffffffffffffffffffffffffffffff163b1115611cc7578373ffffffffffffffffffffffffffffffffffffffff1663f23a6e6187878686866040518663ffffffff1660e01b8152600401611b7c959493929190613279565b6020604051808303816000875af1925050508015611bb857506040513d601f19601f82011682018060405250810190611bb591906132e8565b60015b611c3c573d8060008114611be8576040519150601f19603f3d011682016040523d82523d6000602084013e611bed565b606091505b506000815103611c3457846040517f57f447ce000000000000000000000000000000000000000000000000000000008152600401611c2b919061276d565b60405180910390fd5b805160208201fd5b63f23a6e6160e01b7bffffffffffffffffffffffffffffffffffffffffffffffffffffffff1916817bffffffffffffffffffffffffffffffffffffffffffffffffffffffff191614611cc557846040517f57f447ce000000000000000000000000000000000000000000000000000000008152600401611cbc919061276d565b60405180910390fd5b505b505050505050565b60008473ffffffffffffffffffffffffffffffffffffffff163b1115611e7b578373ffffffffffffffffffffffffffffffffffffffff1663bc197c8187878686866040518663ffffffff1660e01b8152600401611d30959493929190613315565b6020604051808303816000875af1925050508015611d6c57506040513d601f19601f82011682018060405250810190611d6991906132e8565b60015b611df0573d8060008114611d9c576040519150601f19603f3d011682016040523d82523d6000602084013e611da1565b606091505b506000815103611de857846040517f57f447ce000000000000000000000000000000000000000000000000000000008152600401611ddf919061276d565b60405180910390fd5b805160208201fd5b63bc197c8160e01b7bffffffffffffffffffffffffffffffffffffffffffffffffffffffff1916817bffffffffffffffffffffffffffffffffffffffffffffffffffffffff191614611e7957846040517f57f447ce000000000000000000000000000000000000000000000000000000008152600401611e70919061276d565b60405180910390fd5b505b505050505050565b6000604051905090565b600080fd5b600080fd5b600073ffffffffffffffffffffffffffffffffffffffff82169050919050565b6000611ec282611e97565b9050919050565b611ed281611eb7565b8114611edd57600080fd5b50565b600081359050611eef81611ec9565b92915050565b6000819050919050565b611f0881611ef5565b8114611f1357600080fd5b50565b600081359050611f2581611eff565b92915050565b60008060408385031215611f4257611f41611e8d565b5b6000611f5085828601611ee0565b9250506020611f6185828601611f16565b9150509250929050565b611f7481611ef5565b82525050565b6000602082019050611f8f6000830184611f6b565b92915050565b60007fffffffff0000000000000000000000000000000000000000000000000000000082169050919050565b611fca81611f95565b8114611fd557600080fd5b50565b600081359050611fe781611fc1565b92915050565b60006020828403121561200357612002611e8d565b5b600061201184828501611fd8565b91505092915050565b60008115159050919050565b61202f8161201a565b82525050565b600060208201905061204a6000830184612026565b92915050565b60006020828403121561206657612065611e8d565b5b600061207484828501611f16565b91505092915050565b600081519050919050565b600082825260208201905092915050565b60005b838110156120b757808201518184015260208101905061209c565b60008484015250505050565b6000601f19601f8301169050919050565b60006120df8261207d565b6120e98185612088565b93506120f9818560208601612099565b612102816120c3565b840191505092915050565b6000602082019050818103600083015261212781846120d4565b905092915050565b600080fd5b7f4e487b7100000000000000000000000000000000000000000000000000000000600052604160045260246000fd5b61216c826120c3565b810181811067ffffffffffffffff8211171561218b5761218a612134565b5b80604052505050565b600061219e611e83565b90506121aa8282612163565b919050565b600067ffffffffffffffff8211156121ca576121c9612134565b5b602082029050602081019050919050565b600080fd5b60006121f36121ee846121af565b612194565b90508083825260208201905060208402830185811115612216576122156121db565b5b835b8181101561223f578061222b8882611f16565b845260208401935050602081019050612218565b5050509392505050565b600082601f83011261225e5761225d61212f565b5b813561226e8482602086016121e0565b91505092915050565b600080fd5b600067ffffffffffffffff82111561229757612296612134565b5b6122a0826120c3565b9050602081019050919050565b82818337600083830152505050565b60006122cf6122ca8461227c565b612194565b9050828152602081018484840111156122eb576122ea612277565b5b6122f68482856122ad565b509392505050565b600082601f8301126123135761231261212f565b5b81356123238482602086016122bc565b91505092915050565b600080600080600060a0868803121561234857612347611e8d565b5b600061235688828901611ee0565b955050602061236788828901611ee0565b945050604086013567ffffffffffffffff81111561238857612387611e92565b5b61239488828901612249565b935050606086013567ffffffffffffffff8111156123b5576123b4611e92565b5b6123c188828901612249565b925050608086013567ffffffffffffffff8111156123e2576123e1611e92565b5b6123ee888289016122fe565b9150509295509295909350565b600067ffffffffffffffff82111561241657612415612134565b5b602082029050602081019050919050565b600061243a612435846123fb565b612194565b9050808382526020820190506020840283018581111561245d5761245c6121db565b5b835b8181101561248657806124728882611ee0565b84526020840193505060208101905061245f565b5050509392505050565b600082601f8301126124a5576124a461212f565b5b81356124b5848260208601612427565b91505092915050565b600080604083850312156124d5576124d4611e8d565b5b600083013567ffffffffffffffff8111156124f3576124f2611e92565b5b6124ff85828601612490565b925050602083013567ffffffffffffffff8111156125205761251f611e92565b5b61252c85828601612249565b9150509250929050565b600081519050919050565b600082825260208201905092915050565b6000819050602082019050919050565b61256b81611ef5565b82525050565b600061257d8383612562565b60208301905092915050565b6000602082019050919050565b60006125a182612536565b6125ab8185612541565b93506125b683612552565b8060005b838110156125e75781516125ce8882612571565b97506125d983612589565b9250506001810190506125ba565b5085935050505092915050565b6000602082019050818103600083015261260e8184612596565b905092915050565b600067ffffffffffffffff82111561263157612630612134565b5b61263a826120c3565b9050602081019050919050565b600061265a61265584612616565b612194565b90508281526020810184848401111561267657612675612277565b5b6126818482856122ad565b509392505050565b600082601f83011261269e5761269d61212f565b5b81356126ae848260208601612647565b91505092915050565b6000806000606084860312156126d0576126cf611e8d565b5b600084013567ffffffffffffffff8111156126ee576126ed611e92565b5b6126fa86828701612689565b935050602084013567ffffffffffffffff81111561271b5761271a611e92565b5b61272786828701612689565b925050604084013567ffffffffffffffff81111561274857612747611e92565b5b61275486828701612689565b9150509250925092565b61276781611eb7565b82525050565b6000602082019050612782600083018461275e565b92915050565b6127918161201a565b811461279c57600080fd5b50565b6000813590506127ae81612788565b92915050565b600080604083850312156127cb576127ca611e8d565b5b60006127d985828601611ee0565b92505060206127ea8582860161279f565b9150509250929050565b60008060006060848603121561280d5761280c611e8d565b5b600061281b86828701611f16565b935050602061282c86828701611f16565b925050604061283d86828701611f16565b9150509250925092565b6000806040838503121561285e5761285d611e8d565b5b600061286c85828601611ee0565b925050602061287d85828601611ee0565b9150509250929050565b600080600080600060a086880312156128a3576128a2611e8d565b5b60006128b188828901611ee0565b95505060206128c288828901611ee0565b94505060406128d388828901611f16565b93505060606128e488828901611f16565b925050608086013567ffffffffffffffff81111561290557612904611e92565b5b612911888289016122fe565b9150509295509295909350565b60006020828403121561293457612933611e8d565b5b600061294284828501611ee0565b91505092915050565b7f496e76616c696420746f6b656e20494400000000000000000000000000000000600082015250565b6000612981601083612088565b915061298c8261294b565b602082019050919050565b600060208201905081810360008301526129b081612974565b9050919050565b7f4e487b7100000000000000000000000000000000000000000000000000000000600052602260045260246000fd5b600060028204905060018216806129fe57607f821691505b602082108103612a1157612a106129b7565b5b50919050565b6000604082019050612a2c600083018561275e565b612a39602083018461275e565b9392505050565b600081905092915050565b50565b6000612a5b600083612a40565b9150612a6682612a4b565b600082019050919050565b6000612a7c82612a4e565b9150819050919050565b7f5769746864726177616c206661696c6564000000000000000000000000000000600082015250565b6000612abc601183612088565b9150612ac782612a86565b602082019050919050565b60006020820190508181036000830152612aeb81612aaf565b9050919050565b6000604082019050612b076000830185611f6b565b612b146020830184611f6b565b9392505050565b7f4e487b7100000000000000000000000000000000000000000000000000000000600052603260045260246000fd5b60008190508160005260206000209050919050565b60006020601f8301049050919050565b600082821b905092915050565b600060088302612bac7fffffffffffffffffffffffffffffffffffffffffffffffffffffffffffffffff82612b6f565b612bb68683612b6f565b95508019841693508086168417925050509392505050565b6000819050919050565b6000612bf3612bee612be984611ef5565b612bce565b611ef5565b9050919050565b6000819050919050565b612c0d83612bd8565b612c21612c1982612bfa565b848454612b7c565b825550505050565b600090565b612c36612c29565b612c41818484612c04565b505050565b5b81811015612c6557612c5a600082612c2e565b600181019050612c47565b5050565b601f821115612caa57612c7b81612b4a565b612c8484612b5f565b81016020851015612c93578190505b612ca7612c9f85612b5f565b830182612c46565b50505b505050565b600082821c905092915050565b6000612ccd60001984600802612caf565b1980831691505092915050565b6000612ce68383612cbc565b9150826002028217905092915050565b612cff8261207d565b67ffffffffffffffff811115612d1857612d17612134565b5b612d2282546129e6565b612d2d828285612c69565b600060209050601f831160018114612d605760008415612d4e578287015190505b612d588582612cda565b865550612dc0565b601f198416612d6e86612b4a565b60005b82811015612d9657848901518255600182019150602085019450602081019050612d71565b86831015612db35784890151612daf601f891682612cbc565b8355505b6001600288020188555050505b505050505050565b60006060820190508181036000830152612de281866120d4565b90508181036020830152612df681856120d4565b90508181036040830152612e0a81846120d4565b9050949350505050565b7f496e73756666696369656e74207061796d656e7420666f72205072656d69756d60008201527f204e465400000000000000000000000000000000000000000000000000000000602082015250565b6000612e70602483612088565b9150612e7b82612e14565b604082019050919050565b60006020820190508181036000830152612e9f81612e63565b9050919050565b7f5072656d69756d204e465420616c7265616479206f776e656400000000000000600082015250565b6000612edc601983612088565b9150612ee782612ea6565b602082019050919050565b60006020820190508181036000830152612f0b81612ecf565b9050919050565b7f496e73756666696369656e74207061796d656e7420666f722043726561746f7260008201527f204e465400000000000000000000000000000000000000000000000000000000602082015250565b6000612f6e602483612088565b9150612f7982612f12565b604082019050919050565b60006020820190508181036000830152612f9d81612f61565b9050919050565b7f43726561746f72204e465420616c7265616479206f776e656400000000000000600082015250565b6000612fda601983612088565b9150612fe582612fa4565b602082019050919050565b6000602082019050818103600083015261300981612fcd565b9050919050565b7f496e73756666696369656e74207061796d656e7420666f7220496e766573746f60008201527f72204e4654000000000000000000000000000000000000000000000000000000602082015250565b600061306c602583612088565b915061307782613010565b604082019050919050565b6000602082019050818103600083015261309b8161305f565b9050919050565b7f496e766573746f72204e465420616c7265616479206f776e6564000000000000600082015250565b60006130d8601a83612088565b91506130e3826130a2565b602082019050919050565b60006020820190508181036000830152613107816130cb565b9050919050565b60006060820190506131236000830186611f6b565b6131306020830185611f6b565b61313d6040830184611f6b565b949350505050565b600060808201905061315a600083018761275e565b6131676020830186611f6b565b6131746040830185611f6b565b6131816060830184611f6b565b95945050505050565b7f4e487b7100000000000000000000000000000000000000000000000000000000600052601160045260246000fd5b60006131c482611ef5565b91506131cf83611ef5565b92508282019050808211156131e7576131e661318a565b5b92915050565b600060408201905081810360008301526132078185612596565b9050818103602083015261321b8184612596565b90509392505050565b600081519050919050565b600082825260208201905092915050565b600061324b82613224565b613255818561322f565b9350613265818560208601612099565b61326e816120c3565b840191505092915050565b600060a08201905061328e600083018861275e565b61329b602083018761275e565b6132a86040830186611f6b565b6132b56060830185611f6b565b81810360808301526132c78184613240565b90509695505050505050565b6000815190506132e281611fc1565b92915050565b6000602082840312156132fe576132fd611e8d565b5b600061330c848285016132d3565b91505092915050565b600060a08201905061332a600083018861275e565b613337602083018761275e565b81810360408301526133498186612596565b9050818103606083015261335d8185612596565b905081810360808301526133718184613240565b9050969550505050505056fea264697066735822122095f6b9be006ef6f0fdb72806ce488803c18b2daa6fdab8864b193429f077c95764736f6c63430008180033",
  "linkReferences": {},
  "deployedLinkReferences": {}
}