{
  "_format": "hh-sol-artifact-1",
  "contractName": "CrowdChain",
  "sourceName": "contracts/CrowdChain.sol",
  "abi": [
    {
      "inputs": [
        {
          "internalType": "address payable",
          "name": "_companyWallet",
          "type": "address"
        }
      ],
      "stateMutability": "nonpayable",
      "type": "constructor"
    },
    {
      "inputs": [],
      "name": "EnforcedPause",
      "type": "error"
    },
    {
      "inputs": [],
      "name": "ExpectedPause",
      "type": "error"
    },
    {
      "inputs": [
        {
          "internalType": "address",
          "name": "owner",
          "type": "address"
        }
      ],
      "name": "OwnableInvalidOwner",
      "type": "error"
    },
    {
      "inputs": [
        {
          "internalType": "address",
          "name": "account",
          "type": "address"
        }
      ],
      "name": "OwnableUnauthorizedAccount",
      "type": "error"
    },
    {
      "inputs": [],
      "name": "ReentrancyGuardReentrantCall",
      "type": "error"
    },
    {
      "anonymous": false,
      "inputs": [
        {
          "indexed": false,
          "internalType": "uint256",
          "name": "projectId",
          "type": "uint256"
        },
        {
          "indexed": false,
          "internalType": "uint256",
          "name": "milestoneIndex",
          "type": "uint256"
        },
        {
          "indexed": false,
          "internalType": "uint256",
          "name": "amount",
          "type": "uint256"
        }
      ],
      "name": "MilestoneFundsReleased",
      "type": "event"
    },
    {
      "anonymous": false,
      "inputs": [
        {
          "indexed": true,
          "internalType": "address",
          "name": "previousOwner",
          "type": "address"
        },
        {
          "indexed": true,
          "internalType": "address",
          "name": "newOwner",
          "type": "address"
        }
      ],
      "name": "OwnershipTransferred",
      "type": "event"
    },
    {
      "anonymous": false,
      "inputs": [
        {
          "indexed": false,
          "internalType": "uint256",
          "name": "id",
          "type": "uint256"
        },
        {
          "indexed": true,
          "internalType": "address",
          "name": "previousCreator",
          "type": "address"
        },
        {
          "indexed": true,
          "internalType": "address",
          "name": "newCreator",
          "type": "address"
        }
      ],
      "name": "OwnershipTransferred",
      "type": "event"
    },
    {
      "anonymous": false,
      "inputs": [
        {
          "indexed": false,
          "internalType": "address",
          "name": "account",
          "type": "address"
        }
      ],
      "name": "Paused",
      "type": "event"
    },
    {
      "anonymous": false,
      "inputs": [
        {
          "indexed": false,
          "internalType": "uint256",
          "name": "id",
          "type": "uint256"
        },
        {
          "indexed": true,
          "internalType": "address",
          "name": "creator",
          "type": "address"
        },
        {
          "indexed": false,
          "internalType": "string",
          "name": "name",
          "type": "string"
        },
        {
          "indexed": false,
          "internalType": "uint256",
          "name": "fundingGoal",
          "type": "uint256"
        },
        {
          "indexed": false,
          "internalType": "uint256",
          "name": "deadline",
          "type": "uint256"
        }
      ],
      "name": "ProjectCreated",
      "type": "event"
    },
    {
      "anonymous": false,
      "inputs": [
        {
          "indexed": false,
          "internalType": "uint256",
          "name": "id",
          "type": "uint256"
        },
        {
          "indexed": true,
          "internalType": "address",
          "name": "funder",
          "type": "address"
        },
        {
          "indexed": false,
          "internalType": "uint256",
          "name": "amount",
          "type": "uint256"
        }
      ],
      "name": "ProjectFunded",
      "type": "event"
    },
    {
      "anonymous": false,
      "inputs": [
        {
          "indexed": false,
          "internalType": "uint256",
          "name": "id",
          "type": "uint256"
        },
        {
          "indexed": false,
          "internalType": "string",
          "name": "message",
          "type": "string"
        },
        {
          "indexed": false,
          "internalType": "uint256",
          "name": "timestamp",
          "type": "uint256"
        }
      ],
      "name": "ProjectUpdate",
      "type": "event"
    },
    {
      "anonymous": false,
      "inputs": [
        {
          "indexed": false,
          "internalType": "address",
          "name": "account",
          "type": "address"
        }
      ],
      "name": "Unpaused",
      "type": "event"
    },
    {
      "inputs": [
        {
          "internalType": "uint256",
          "name": "_projectId",
          "type": "uint256"
        }
      ],
      "name": "checkFundingStatus",
      "outputs": [],
      "stateMutability": "nonpayable",
      "type": "function"
    },
    {
      "inputs": [
        {
          "internalType": "uint256",
          "name": "_projectId",
          "type": "uint256"
        }
      ],
      "name": "claimRefund",
      "outputs": [],
      "stateMutability": "nonpayable",
      "type": "function"
    },
    {
      "inputs": [],
      "name": "companyWallet",
      "outputs": [
        {
          "internalType": "address payable",
          "name": "",
          "type": "address"
        }
      ],
      "stateMutability": "view",
      "type": "function"
    },
    {
      "inputs": [
        {
          "internalType": "string",
          "name": "_name",
          "type": "string"
        },
        {
          "internalType": "string",
          "name": "_description",
          "type": "string"
        },
        {
          "internalType": "uint256",
          "name": "_fundingGoal",
          "type": "uint256"
        },
        {
          "internalType": "uint256",
          "name": "_deadline",
          "type": "uint256"
        },
        {
          "internalType": "string[]",
          "name": "_milestoneDescriptions",
          "type": "string[]"
        },
        {
          "internalType": "uint256[]",
          "name": "_milestoneFunds",
          "type": "uint256[]"
        }
      ],
      "name": "createProject",
      "outputs": [],
      "stateMutability": "nonpayable",
      "type": "function"
    },
    {
      "inputs": [
        {
          "internalType": "uint256",
          "name": "_projectId",
          "type": "uint256"
        }
      ],
      "name": "fundProject",
      "outputs": [],
      "stateMutability": "payable",
      "type": "function"
    },
    {
      "inputs": [],
      "name": "owner",
      "outputs": [
        {
          "internalType": "address",
          "name": "",
          "type": "address"
        }
      ],
      "stateMutability": "view",
      "type": "function"
    },
    {
      "inputs": [],
      "name": "pause",
      "outputs": [],
      "stateMutability": "nonpayable",
      "type": "function"
    },
    {
      "inputs": [],
      "name": "paused",
      "outputs": [
        {
          "internalType": "bool",
          "name": "",
          "type": "bool"
        }
      ],
      "stateMutability": "view",
      "type": "function"
    },
    {
      "inputs": [
        {
          "internalType": "uint256",
          "name": "_projectId",
          "type": "uint256"
        },
        {
          "internalType": "string",
          "name": "_message",
          "type": "string"
        }
      ],
      "name": "postUpdate",
      "outputs": [],
      "stateMutability": "nonpayable",
      "type": "function"
    },
    {
      "inputs": [],
      "name": "projectCounter",
      "outputs": [
        {
          "internalType": "uint256",
          "name": "",
          "type": "uint256"
        }
      ],
      "stateMutability": "view",
      "type": "function"
    },
    {
      "inputs": [
        {
          "internalType": "uint256",
          "name": "",
          "type": "uint256"
        }
      ],
      "name": "projects",
      "outputs": [
        {
          "internalType": "uint256",
          "name": "id",
          "type": "uint256"
        },
        {
          "internalType": "address payable",
          "name": "creator",
          "type": "address"
        },
        {
          "internalType": "string",
          "name": "name",
          "type": "string"
        },
        {
          "internalType": "string",
          "name": "description",
          "type": "string"
        },
        {
          "internalType": "uint256",
          "name": "fundingGoal",
          "type": "uint256"
        },
        {
          "internalType": "uint256",
          "name": "amountRaised",
          "type": "uint256"
        },
        {
          "internalType": "uint256",
          "name": "deadline",
          "type": "uint256"
        },
        {
          "internalType": "enum CrowdChain.ProjectState",
          "name": "state",
          "type": "uint8"
        }
      ],
      "stateMutability": "view",
      "type": "function"
    },
    {
      "inputs": [
        {
          "internalType": "uint256",
          "name": "_projectId",
          "type": "uint256"
        },
        {
          "internalType": "uint256",
          "name": "_milestoneIndex",
          "type": "uint256"
        }
      ],
      "name": "releaseMilestoneFunds",
      "outputs": [],
      "stateMutability": "nonpayable",
      "type": "function"
    },
    {
      "inputs": [],
      "name": "renounceOwnership",
      "outputs": [],
      "stateMutability": "nonpayable",
      "type": "function"
    },
    {
      "inputs": [
        {
          "internalType": "address payable",
          "name": "_newCompanyWallet",
          "type": "address"
        }
      ],
      "name": "setCompanyWallet",
      "outputs": [],
      "stateMutability": "nonpayable",
      "type": "function"
    },
    {
      "inputs": [
        {
          "internalType": "address",
          "name": "newOwner",
          "type": "address"
        }
      ],
      "name": "transferOwnership",
      "outputs": [],
      "stateMutability": "nonpayable",
      "type": "function"
    },
    {
      "inputs": [
        {
          "internalType": "uint256",
          "name": "_projectId",
          "type": "uint256"
        },
        {
          "internalType": "address payable",
          "name": "_newCreator",
          "type": "address"
        }
      ],
      "name": "transferProjectOwnership",
      "outputs": [],
      "stateMutability": "nonpayable",
      "type": "function"
    },
    {
      "inputs": [],
      "name": "unpause",
      "outputs": [],
      "stateMutability": "nonpayable",
      "type": "function"
    },
    {
      "inputs": [
        {
          "internalType": "uint256",
          "name": "_projectId",
          "type": "uint256"
        },
        {
          "internalType": "uint256",
          "name": "_milestoneIndex",
          "type": "uint256"
        }
      ],
      "name": "voteOnMilestone",
      "outputs": [],
      "stateMutability": "nonpayable",
      "type": "function"
    }
  ],
  "bytecode": "0x60806040523480156200001157600080fd5b5060405162003a2638038062003a2683398181016040528101906200003791906200023c565b33600073ffffffffffffffffffffffffffffffffffffffff168173ffffffffffffffffffffffffffffffffffffffff1603620000ad5760006040517f1e4fbdf7000000000000000000000000000000000000000000000000000000008152600401620000a4919062000293565b60405180910390fd5b620000be816200010e60201b60201c565b506001808190555080600460006101000a81548173ffffffffffffffffffffffffffffffffffffffff021916908373ffffffffffffffffffffffffffffffffffffffff16021790555050620002b0565b60008060009054906101000a900473ffffffffffffffffffffffffffffffffffffffff169050816000806101000a81548173ffffffffffffffffffffffffffffffffffffffff021916908373ffffffffffffffffffffffffffffffffffffffff1602179055508173ffffffffffffffffffffffffffffffffffffffff168173ffffffffffffffffffffffffffffffffffffffff167f8be0079c531659141344cd1fd0a4f28419497f9722a3daafe3b4186f6b6457e060405160405180910390a35050565b600080fd5b600073ffffffffffffffffffffffffffffffffffffffff82169050919050565b60006200020482620001d7565b9050919050565b6200021681620001f7565b81146200022257600080fd5b50565b60008151905062000236816200020b565b92915050565b600060208284031215620002555762000254620001d2565b5b6000620002658482850162000225565b91505092915050565b60006200027b82620001d7565b9050919050565b6200028d816200026e565b82525050565b6000602082019050620002aa600083018462000282565b92915050565b61376680620002c06000396000f3fe6080604052600436106101085760003560e01c80636c563abe11610095578063cd6e083711610064578063cd6e083714610300578063dfecbd8e14610329578063eba9bc9614610352578063f2fde38b1461037b578063f8a518ed146103a457610108565b80636c563abe1461028b578063715018a6146102a75780638456cb59146102be5780638da5cb5b146102d557610108565b80633de1bb15116100dc5780633de1bb15146101ce5780633f4ba83a146101f75780635ab3e1051461020e5780635b7baf64146102375780635c975abb1461026057610108565b806237670f1461010d578063107046bd146101365780631ec32d151461017a57806328831187146101a5575b600080fd5b34801561011957600080fd5b50610134600480360381019061012f9190611e67565b6103cf565b005b34801561014257600080fd5b5061015d60048036038101906101589190611e67565b610518565b604051610171989796959493929190611feb565b60405180910390f35b34801561018657600080fd5b5061018f61069d565b60405161019c9190612077565b60405180910390f35b3480156101b157600080fd5b506101cc60048036038101906101c791906120be565b6106c3565b005b3480156101da57600080fd5b506101f560048036038101906101f091906120eb565b61070f565b005b34801561020357600080fd5b5061020c610b7f565b005b34801561021a57600080fd5b5061023560048036038101906102309190612260565b610b91565b005b34801561024357600080fd5b5061025e60048036038101906102599190611e67565b610ce6565b005b34801561026c57600080fd5b50610275610f07565b60405161028291906122d7565b60405180910390f35b6102a560048036038101906102a09190611e67565b610f1d565b005b3480156102b357600080fd5b506102bc6111c3565b005b3480156102ca57600080fd5b506102d36111d7565b005b3480156102e157600080fd5b506102ea6111e9565b6040516102f79190612313565b60405180910390f35b34801561030c57600080fd5b50610327600480360381019061032291906120eb565b611212565b005b34801561033557600080fd5b50610350600480360381019061034b919061232e565b61150c565b005b34801561035e57600080fd5b5061037960048036038101906103749190612517565b611703565b005b34801561038757600080fd5b506103a2600480360381019061039d9190612640565b611aa9565b005b3480156103b057600080fd5b506103b9611b2f565b6040516103c6919061266d565b60405180910390f35b6000600260008381526020019081526020016000209050600060028111156103fa576103f9611f74565b5b8160070160009054906101000a900460ff16600281111561041e5761041d611f74565b5b1461045e576040517f08c379a0000000000000000000000000000000000000000000000000000000008152600401610455906126fa565b60405180910390fd5b80600601544210156104a5576040517f08c379a000000000000000000000000000000000000000000000000000000000815260040161049c90612766565b60405180910390fd5b80600401548160050154106104e65760028160070160006101000a81548160ff021916908360028111156104dc576104db611f74565b5b0217905550610514565b60018160070160006101000a81548160ff0219169083600281111561050e5761050d611f74565b5b02179055505b5050565b60026020528060005260406000206000915090508060000154908060010160009054906101000a900473ffffffffffffffffffffffffffffffffffffffff1690806002018054610567906127b5565b80601f0160208091040260200160405190810160405280929190818152602001828054610593906127b5565b80156105e05780601f106105b5576101008083540402835291602001916105e0565b820191906000526020600020905b8154815290600101906020018083116105c357829003601f168201915b5050505050908060030180546105f5906127b5565b80601f0160208091040260200160405190810160405280929190818152602001828054610621906127b5565b801561066e5780601f106106435761010080835404028352916020019161066e565b820191906000526020600020905b81548152906001019060200180831161065157829003601f168201915b5050505050908060040154908060050154908060060154908060070160009054906101000a900460ff16905088565b600460009054906101000a900473ffffffffffffffffffffffffffffffffffffffff1681565b6106cb611b35565b80600460006101000a81548173ffffffffffffffffffffffffffffffffffffffff021916908373ffffffffffffffffffffffffffffffffffffffff16021790555050565b610717611bbc565b60006002600084815260200190815260200160002090506000816009018381548110610746576107456127e6565b5b906000526020600020906004020190508160010160009054906101000a900473ffffffffffffffffffffffffffffffffffffffff1673ffffffffffffffffffffffffffffffffffffffff163373ffffffffffffffffffffffffffffffffffffffff16146107e8576040517f08c379a00000000000000000000000000000000000000000000000000000000081526004016107df90612887565b60405180910390fd5b6002808111156107fb576107fa611f74565b5b8260070160009054906101000a900460ff16600281111561081f5761081e611f74565b5b1461085f576040517f08c379a0000000000000000000000000000000000000000000000000000000008152600401610856906128f3565b60405180910390fd5b6001600281111561087357610872611f74565b5b8160020160009054906101000a900460ff16600281111561089757610896611f74565b5b146108d7576040517f08c379a00000000000000000000000000000000000000000000000000000000081526004016108ce9061295f565b60405180910390fd5b81600a0180549050600282600301546108f091906129ae565b11610930576040517f08c379a000000000000000000000000000000000000000000000000000000000815260040161092790612a62565b60405180910390fd5b6000816001015490506000606460038361094a91906129ae565b6109549190612ab1565b9050600081836109649190612ae2565b90506000600460009054906101000a900473ffffffffffffffffffffffffffffffffffffffff1673ffffffffffffffffffffffffffffffffffffffff16836040516109ae90612b47565b60006040518083038185875af1925050503d80600081146109eb576040519150601f19603f3d011682016040523d82523d6000602084013e6109f0565b606091505b5050905080610a34576040517f08c379a0000000000000000000000000000000000000000000000000000000008152600401610a2b90612ba8565b60405180910390fd5b60008660010160009054906101000a900473ffffffffffffffffffffffffffffffffffffffff1673ffffffffffffffffffffffffffffffffffffffff1683604051610a7e90612b47565b60006040518083038185875af1925050503d8060008114610abb576040519150601f19603f3d011682016040523d82523d6000602084013e610ac0565b606091505b5050905080610b04576040517f08c379a0000000000000000000000000000000000000000000000000000000008152600401610afb90612c14565b60405180910390fd5b60028660020160006101000a81548160ff02191690836002811115610b2c57610b2b611f74565b5b02179055507f869cb40cde1845b374a441e12616121179a97e9e1b1cf53634469b3b6714243e898985604051610b6493929190612c34565b60405180910390a150505050505050610b7b611c02565b5050565b610b87611b35565b610b8f611c0b565b565b610b99611c6d565b60006002600084815260200190815260200160002090508060010160009054906101000a900473ffffffffffffffffffffffffffffffffffffffff1673ffffffffffffffffffffffffffffffffffffffff163373ffffffffffffffffffffffffffffffffffffffff1614610c42576040517f08c379a0000000000000000000000000000000000000000000000000000000008152600401610c3990612cdd565b60405180910390fd5b8060080160405180604001604052808481526020014281525090806001815401808255809150506001900390600052602060002090600202016000909190919091506000820151816000019081610c999190612ea9565b506020820151816001015550507fa9e08ee59f139d3885efa43dc850e07b8610c6ecdfd2d2b49b1a03172e76e185838342604051610cd993929190612f7b565b60405180910390a1505050565b610cee611bbc565b600060026000838152602001908152602001600020905060016002811115610d1957610d18611f74565b5b8160070160009054906101000a900460ff166002811115610d3d57610d3c611f74565b5b14610d7d576040517f08c379a0000000000000000000000000000000000000000000000000000000008152600401610d7490613005565b60405180910390fd5b600081600b0160003373ffffffffffffffffffffffffffffffffffffffff1673ffffffffffffffffffffffffffffffffffffffff16815260200190815260200160002054905060008111610e06576040517f08c379a0000000000000000000000000000000000000000000000000000000008152600401610dfd90613097565b60405180910390fd5b600082600b0160003373ffffffffffffffffffffffffffffffffffffffff1673ffffffffffffffffffffffffffffffffffffffff1681526020019081526020016000208190555060003373ffffffffffffffffffffffffffffffffffffffff1682604051610e7390612b47565b60006040518083038185875af1925050503d8060008114610eb0576040519150601f19603f3d011682016040523d82523d6000602084013e610eb5565b606091505b5050905080610ef9576040517f08c379a0000000000000000000000000000000000000000000000000000000008152600401610ef090613103565b60405180910390fd5b505050610f04611c02565b50565b60008060149054906101000a900460ff16905090565b610f25611c6d565b610f2d611bbc565b600060026000838152602001908152602001600020905060006002811115610f5857610f57611f74565b5b8160070160009054906101000a900460ff166002811115610f7c57610f7b611f74565b5b14610fbc576040517f08c379a0000000000000000000000000000000000000000000000000000000008152600401610fb3906126fa565b60405180910390fd5b80600601544210611002576040517f08c379a0000000000000000000000000000000000000000000000000000000008152600401610ff99061316f565b60405180910390fd5b60003411611045576040517f08c379a000000000000000000000000000000000000000000000000000000000815260040161103c906131db565b60405180910390fd5b3481600501600082825461105991906131fb565b92505081905550600081600b0160003373ffffffffffffffffffffffffffffffffffffffff1673ffffffffffffffffffffffffffffffffffffffff168152602001908152602001600020540361110f5780600a01339080600181540180825580915050600190039060005260206000200160009091909190916101000a81548173ffffffffffffffffffffffffffffffffffffffff021916908373ffffffffffffffffffffffffffffffffffffffff1602179055505b3481600b0160003373ffffffffffffffffffffffffffffffffffffffff1673ffffffffffffffffffffffffffffffffffffffff168152602001908152602001600020600082825461116091906131fb565b925050819055503373ffffffffffffffffffffffffffffffffffffffff167f6251418ffd7f504740544ec3d578897633e212c5d658b7dce793c5dc9d2e855e83346040516111af92919061322f565b60405180910390a2506111c0611c02565b50565b6111cb611b35565b6111d56000611cae565b565b6111df611b35565b6111e7611d72565b565b60008060009054906101000a900473ffffffffffffffffffffffffffffffffffffffff16905090565b600060026000848152602001908152602001600020905060028081111561123c5761123b611f74565b5b8160070160009054906101000a900460ff1660028111156112605761125f611f74565b5b146112a0576040517f08c379a0000000000000000000000000000000000000000000000000000000008152600401611297906128f3565b60405180910390fd5b600160028111156112b4576112b3611f74565b5b8160090183815481106112ca576112c96127e6565b5b906000526020600020906004020160020160009054906101000a900460ff1660028111156112fb576112fa611f74565b5b1461133b576040517f08c379a00000000000000000000000000000000000000000000000000000000081526004016113329061295f565b60405180910390fd5b600081600b0160003373ffffffffffffffffffffffffffffffffffffffff1673ffffffffffffffffffffffffffffffffffffffff16815260200190815260200160002054116113bf576040517f08c379a00000000000000000000000000000000000000000000000000000000081526004016113b6906132a4565b60405180910390fd5b80600c01600083815260200190815260200160002060003373ffffffffffffffffffffffffffffffffffffffff1673ffffffffffffffffffffffffffffffffffffffff16815260200190815260200160002060009054906101000a900460ff161561145f576040517f08c379a000000000000000000000000000000000000000000000000000000000815260040161145690613336565b60405180910390fd5b600181600c01600084815260200190815260200160002060003373ffffffffffffffffffffffffffffffffffffffff1673ffffffffffffffffffffffffffffffffffffffff16815260200190815260200160002060006101000a81548160ff0219169083151502179055508060090182815481106114e0576114df6127e6565b5b9060005260206000209060040201600301600081548092919061150290613356565b9190505550505050565b611514611c6d565b60006002600084815260200190815260200160002090508060010160009054906101000a900473ffffffffffffffffffffffffffffffffffffffff1673ffffffffffffffffffffffffffffffffffffffff163373ffffffffffffffffffffffffffffffffffffffff16146115bd576040517f08c379a00000000000000000000000000000000000000000000000000000000081526004016115b490613410565b60405180910390fd5b600073ffffffffffffffffffffffffffffffffffffffff168273ffffffffffffffffffffffffffffffffffffffff160361162c576040517f08c379a0000000000000000000000000000000000000000000000000000000008152600401611623906134a2565b60405180910390fd5b60008160010160009054906101000a900473ffffffffffffffffffffffffffffffffffffffff169050828260010160006101000a81548173ffffffffffffffffffffffffffffffffffffffff021916908373ffffffffffffffffffffffffffffffffffffffff1602179055508273ffffffffffffffffffffffffffffffffffffffff168173ffffffffffffffffffffffffffffffffffffffff167f16b85f49bf01212961345d3016c9a531894accf62eb7680f2045d79185cc0ec0866040516116f5919061266d565b60405180910390a350505050565b61170b611c6d565b6000841161174e576040517f08c379a000000000000000000000000000000000000000000000000000000000815260040161174590613534565b60405180910390fd5b428311611790576040517f08c379a0000000000000000000000000000000000000000000000000000000008152600401611787906135a0565b60405180910390fd5b80518251146117d4576040517f08c379a00000000000000000000000000000000000000000000000000000000081526004016117cb90613632565b60405180910390fd5b6000805b8251811015611816578281815181106117f4576117f36127e6565b5b60200260200101518261180791906131fb565b915080806001019150506117d8565b50848114611859576040517f08c379a0000000000000000000000000000000000000000000000000000000008152600401611850906136c4565b60405180910390fd5b6003600081548092919061186c90613356565b9190505550600060035490506000600260008381526020019081526020016000209050818160000181905550338160010160006101000a81548173ffffffffffffffffffffffffffffffffffffffff021916908373ffffffffffffffffffffffffffffffffffffffff160217905550888160020190816118ec9190612ea9565b50878160030190816118fe9190612ea9565b5086816004018190555085816006018190555060008160070160006101000a81548160ff0219169083600281111561193957611938611f74565b5b021790555060005b8551811015611a495781600901604051806080016040528088848151811061196c5761196b6127e6565b5b6020026020010151815260200187848151811061198c5761198b6127e6565b5b60200260200101518152602001600060028111156119ad576119ac611f74565b5b81526020016000815250908060018154018082558091505060019003906000526020600020906004020160009091909190915060008201518160000190816119f59190612ea9565b506020820151816001015560408201518160020160006101000a81548160ff02191690836002811115611a2b57611a2a611f74565b5b02179055506060820151816003015550508080600101915050611941565b503373ffffffffffffffffffffffffffffffffffffffff167f483013d4a1d5e8ba43089bda8f1a92b959e32d6fc582556f800267dd809e5893838b8a8a604051611a9694939291906136e4565b60405180910390a2505050505050505050565b611ab1611b35565b600073ffffffffffffffffffffffffffffffffffffffff168173ffffffffffffffffffffffffffffffffffffffff1603611b235760006040517f1e4fbdf7000000000000000000000000000000000000000000000000000000008152600401611b1a9190612313565b60405180910390fd5b611b2c81611cae565b50565b60035481565b611b3d611dd5565b73ffffffffffffffffffffffffffffffffffffffff16611b5b6111e9565b73ffffffffffffffffffffffffffffffffffffffff1614611bba57611b7e611dd5565b6040517f118cdaa7000000000000000000000000000000000000000000000000000000008152600401611bb19190612313565b60405180910390fd5b565b600260015403611bf8576040517f3ee5aeb500000000000000000000000000000000000000000000000000000000815260040160405180910390fd5b6002600181905550565b60018081905550565b611c13611ddd565b60008060146101000a81548160ff0219169083151502179055507f5db9ee0a495bf2e6ff9c91a7834c1ba4fdd244a5e8aa4e537bd38aeae4b073aa611c56611dd5565b604051611c639190612313565b60405180910390a1565b611c75610f07565b15611cac576040517fd93c066500000000000000000000000000000000000000000000000000000000815260040160405180910390fd5b565b60008060009054906101000a900473ffffffffffffffffffffffffffffffffffffffff169050816000806101000a81548173ffffffffffffffffffffffffffffffffffffffff021916908373ffffffffffffffffffffffffffffffffffffffff1602179055508173ffffffffffffffffffffffffffffffffffffffff168173ffffffffffffffffffffffffffffffffffffffff167f8be0079c531659141344cd1fd0a4f28419497f9722a3daafe3b4186f6b6457e060405160405180910390a35050565b611d7a611c6d565b6001600060146101000a81548160ff0219169083151502179055507f62e78cea01bee320cd4e420270b5ea74000d11b0c9f74754ebdbfc544b05a258611dbe611dd5565b604051611dcb9190612313565b60405180910390a1565b600033905090565b611de5610f07565b611e1b576040517f8dfc202b00000000000000000000000000000000000000000000000000000000815260040160405180910390fd5b565b6000604051905090565b600080fd5b600080fd5b6000819050919050565b611e4481611e31565b8114611e4f57600080fd5b50565b600081359050611e6181611e3b565b92915050565b600060208284031215611e7d57611e7c611e27565b5b6000611e8b84828501611e52565b91505092915050565b611e9d81611e31565b82525050565b600073ffffffffffffffffffffffffffffffffffffffff82169050919050565b6000611ece82611ea3565b9050919050565b611ede81611ec3565b82525050565b600081519050919050565b600082825260208201905092915050565b60005b83811015611f1e578082015181840152602081019050611f03565b60008484015250505050565b6000601f19601f8301169050919050565b6000611f4682611ee4565b611f508185611eef565b9350611f60818560208601611f00565b611f6981611f2a565b840191505092915050565b7f4e487b7100000000000000000000000000000000000000000000000000000000600052602160045260246000fd5b60038110611fb457611fb3611f74565b5b50565b6000819050611fc582611fa3565b919050565b6000611fd582611fb7565b9050919050565b611fe581611fca565b82525050565b600061010082019050612001600083018b611e94565b61200e602083018a611ed5565b81810360408301526120208189611f3b565b905081810360608301526120348188611f3b565b90506120436080830187611e94565b61205060a0830186611e94565b61205d60c0830185611e94565b61206a60e0830184611fdc565b9998505050505050505050565b600060208201905061208c6000830184611ed5565b92915050565b61209b81611ec3565b81146120a657600080fd5b50565b6000813590506120b881612092565b92915050565b6000602082840312156120d4576120d3611e27565b5b60006120e2848285016120a9565b91505092915050565b6000806040838503121561210257612101611e27565b5b600061211085828601611e52565b925050602061212185828601611e52565b9150509250929050565b600080fd5b600080fd5b7f4e487b7100000000000000000000000000000000000000000000000000000000600052604160045260246000fd5b61216d82611f2a565b810181811067ffffffffffffffff8211171561218c5761218b612135565b5b80604052505050565b600061219f611e1d565b90506121ab8282612164565b919050565b600067ffffffffffffffff8211156121cb576121ca612135565b5b6121d482611f2a565b9050602081019050919050565b82818337600083830152505050565b60006122036121fe846121b0565b612195565b90508281526020810184848401111561221f5761221e612130565b5b61222a8482856121e1565b509392505050565b600082601f8301126122475761224661212b565b5b81356122578482602086016121f0565b91505092915050565b6000806040838503121561227757612276611e27565b5b600061228585828601611e52565b925050602083013567ffffffffffffffff8111156122a6576122a5611e2c565b5b6122b285828601612232565b9150509250929050565b60008115159050919050565b6122d1816122bc565b82525050565b60006020820190506122ec60008301846122c8565b92915050565b60006122fd82611ea3565b9050919050565b61230d816122f2565b82525050565b60006020820190506123286000830184612304565b92915050565b6000806040838503121561234557612344611e27565b5b600061235385828601611e52565b9250506020612364858286016120a9565b9150509250929050565b600067ffffffffffffffff82111561238957612388612135565b5b602082029050602081019050919050565b600080fd5b60006123b26123ad8461236e565b612195565b905080838252602082019050602084028301858111156123d5576123d461239a565b5b835b8181101561241c57803567ffffffffffffffff8111156123fa576123f961212b565b5b8086016124078982612232565b855260208501945050506020810190506123d7565b5050509392505050565b600082601f83011261243b5761243a61212b565b5b813561244b84826020860161239f565b91505092915050565b600067ffffffffffffffff82111561246f5761246e612135565b5b602082029050602081019050919050565b600061249361248e84612454565b612195565b905080838252602082019050602084028301858111156124b6576124b561239a565b5b835b818110156124df57806124cb8882611e52565b8452602084019350506020810190506124b8565b5050509392505050565b600082601f8301126124fe576124fd61212b565b5b813561250e848260208601612480565b91505092915050565b60008060008060008060c0878903121561253457612533611e27565b5b600087013567ffffffffffffffff81111561255257612551611e2c565b5b61255e89828a01612232565b965050602087013567ffffffffffffffff81111561257f5761257e611e2c565b5b61258b89828a01612232565b955050604061259c89828a01611e52565b94505060606125ad89828a01611e52565b935050608087013567ffffffffffffffff8111156125ce576125cd611e2c565b5b6125da89828a01612426565b92505060a087013567ffffffffffffffff8111156125fb576125fa611e2c565b5b61260789828a016124e9565b9150509295509295509295565b61261d816122f2565b811461262857600080fd5b50565b60008135905061263a81612614565b92915050565b60006020828403121561265657612655611e27565b5b60006126648482850161262b565b91505092915050565b60006020820190506126826000830184611e94565b92915050565b7f50726f6a656374206973206e6f7420696e2066756e6472616973696e6720737460008201527f6174650000000000000000000000000000000000000000000000000000000000602082015250565b60006126e4602383611eef565b91506126ef82612688565b604082019050919050565b60006020820190508181036000830152612713816126d7565b9050919050565b7f446561646c696e6520686173206e6f7420706173736564207965740000000000600082015250565b6000612750601b83611eef565b915061275b8261271a565b602082019050919050565b6000602082019050818103600083015261277f81612743565b9050919050565b7f4e487b7100000000000000000000000000000000000000000000000000000000600052602260045260246000fd5b600060028204905060018216806127cd57607f821691505b6020821081036127e0576127df612786565b5b50919050565b7f4e487b7100000000000000000000000000000000000000000000000000000000600052603260045260246000fd5b7f4f6e6c79207468652070726f6a6563742063726561746f722063616e2072656c60008201527f656173652066756e647300000000000000000000000000000000000000000000602082015250565b6000612871602a83611eef565b915061287c82612815565b604082019050919050565b600060208201905081810360008301526128a081612864565b9050919050565b7f50726f6a656374206973206e6f74207375636365737366756c00000000000000600082015250565b60006128dd601983611eef565b91506128e8826128a7565b602082019050919050565b6000602082019050818103600083015261290c816128d0565b9050919050565b7f4d696c6573746f6e65206973206e6f7420696e20726576696577000000000000600082015250565b6000612949601a83611eef565b915061295482612913565b602082019050919050565b600060208201905081810360008301526129788161293c565b9050919050565b7f4e487b7100000000000000000000000000000000000000000000000000000000600052601160045260246000fd5b60006129b982611e31565b91506129c483611e31565b92508282026129d281611e31565b915082820484148315176129e9576129e861297f565b5b5092915050565b7f4d696c6573746f6e65206e6f7420617070726f766564206279206d616a6f726960008201527f7479000000000000000000000000000000000000000000000000000000000000602082015250565b6000612a4c602283611eef565b9150612a57826129f0565b604082019050919050565b60006020820190508181036000830152612a7b81612a3f565b9050919050565b7f4e487b7100000000000000000000000000000000000000000000000000000000600052601260045260246000fd5b6000612abc82611e31565b9150612ac783611e31565b925082612ad757612ad6612a82565b5b828204905092915050565b6000612aed82611e31565b9150612af883611e31565b9250828203905081811115612b1057612b0f61297f565b5b92915050565b600081905092915050565b50565b6000612b31600083612b16565b9150612b3c82612b21565b600082019050919050565b6000612b5282612b24565b9150819050919050565b7f4661696c656420746f2073656e64206665650000000000000000000000000000600082015250565b6000612b92601283611eef565b9150612b9d82612b5c565b602082019050919050565b60006020820190508181036000830152612bc181612b85565b9050919050565b7f4661696c656420746f2073656e642066756e647320746f2063726561746f7200600082015250565b6000612bfe601f83611eef565b9150612c0982612bc8565b602082019050919050565b60006020820190508181036000830152612c2d81612bf1565b9050919050565b6000606082019050612c496000830186611e94565b612c566020830185611e94565b612c636040830184611e94565b949350505050565b7f4f6e6c79207468652063726561746f722063616e20706f73742075706461746560008201527f7300000000000000000000000000000000000000000000000000000000000000602082015250565b6000612cc7602183611eef565b9150612cd282612c6b565b604082019050919050565b60006020820190508181036000830152612cf681612cba565b9050919050565b60008190508160005260206000209050919050565b60006020601f8301049050919050565b600082821b905092915050565b600060088302612d5f7fffffffffffffffffffffffffffffffffffffffffffffffffffffffffffffffff82612d22565b612d698683612d22565b95508019841693508086168417925050509392505050565b6000819050919050565b6000612da6612da1612d9c84611e31565b612d81565b611e31565b9050919050565b6000819050919050565b612dc083612d8b565b612dd4612dcc82612dad565b848454612d2f565b825550505050565b600090565b612de9612ddc565b612df4818484612db7565b505050565b5b81811015612e1857612e0d600082612de1565b600181019050612dfa565b5050565b601f821115612e5d57612e2e81612cfd565b612e3784612d12565b81016020851015612e46578190505b612e5a612e5285612d12565b830182612df9565b50505b505050565b600082821c905092915050565b6000612e8060001984600802612e62565b1980831691505092915050565b6000612e998383612e6f565b9150826002028217905092915050565b612eb282611ee4565b67ffffffffffffffff811115612ecb57612eca612135565b5b612ed582546127b5565b612ee0828285612e1c565b600060209050601f831160018114612f135760008415612f01578287015190505b612f0b8582612e8d565b865550612f73565b601f198416612f2186612cfd565b60005b82811015612f4957848901518255600182019150602085019450602081019050612f24565b86831015612f665784890151612f62601f891682612e6f565b8355505b6001600288020188555050505b505050505050565b6000606082019050612f906000830186611e94565b8181036020830152612fa28185611f3b565b9050612fb16040830184611e94565b949350505050565b7f50726f6a65637420646964206e6f742065787069726500000000000000000000600082015250565b6000612fef601683611eef565b9150612ffa82612fb9565b602082019050919050565b6000602082019050818103600083015261301e81612fe2565b9050919050565b7f596f7520646964206e6f7420636f6e7472696275746520746f2074686973207060008201527f726f6a6563740000000000000000000000000000000000000000000000000000602082015250565b6000613081602683611eef565b915061308c82613025565b604082019050919050565b600060208201905081810360008301526130b081613074565b9050919050565b7f4661696c656420746f2073656e6420726566756e640000000000000000000000600082015250565b60006130ed601583611eef565b91506130f8826130b7565b602082019050919050565b6000602082019050818103600083015261311c816130e0565b9050919050565b7f46756e64696e6720646561646c696e6520686173207061737365640000000000600082015250565b6000613159601b83611eef565b915061316482613123565b602082019050919050565b600060208201905081810360008301526131888161314c565b9050919050565b7f4d7573742073656e6420736f6d65204554480000000000000000000000000000600082015250565b60006131c5601283611eef565b91506131d08261318f565b602082019050919050565b600060208201905081810360008301526131f4816131b8565b9050919050565b600061320682611e31565b915061321183611e31565b92508282019050808211156132295761322861297f565b5b92915050565b60006040820190506132446000830185611e94565b6132516020830184611e94565b9392505050565b7f4f6e6c792066756e646572732063616e20766f74650000000000000000000000600082015250565b600061328e601583611eef565b915061329982613258565b602082019050919050565b600060208201905081810360008301526132bd81613281565b9050919050565b7f596f75206861766520616c726561647920766f746564206f6e2074686973206d60008201527f696c6573746f6e65000000000000000000000000000000000000000000000000602082015250565b6000613320602883611eef565b915061332b826132c4565b604082019050919050565b6000602082019050818103600083015261334f81613313565b9050919050565b600061336182611e31565b91507fffffffffffffffffffffffffffffffffffffffffffffffffffffffffffffffff82036133935761339261297f565b5b600182019050919050565b7f4f6e6c79207468652063757272656e742063726561746f722063616e2074726160008201527f6e73666572206f776e6572736869700000000000000000000000000000000000602082015250565b60006133fa602f83611eef565b91506134058261339e565b604082019050919050565b60006020820190508181036000830152613429816133ed565b9050919050565b7f4e65772063726561746f722063616e6e6f7420626520746865207a65726f206160008201527f6464726573730000000000000000000000000000000000000000000000000000602082015250565b600061348c602683611eef565b915061349782613430565b604082019050919050565b600060208201905081810360008301526134bb8161347f565b9050919050565b7f46756e64696e6720676f616c206d75737420626520677265617465722074686160008201527f6e20300000000000000000000000000000000000000000000000000000000000602082015250565b600061351e602383611eef565b9150613529826134c2565b604082019050919050565b6000602082019050818103600083015261354d81613511565b9050919050565b7f446561646c696e65206d75737420626520696e20746865206675747572650000600082015250565b600061358a601e83611eef565b915061359582613554565b602082019050919050565b600060208201905081810360008301526135b98161357d565b9050919050565b7f4d696c6573746f6e65206465736372697074696f6e7320616e642066756e647360008201527f206d7573742068617665207468652073616d65206c656e677468000000000000602082015250565b600061361c603a83611eef565b9150613627826135c0565b604082019050919050565b6000602082019050818103600083015261364b8161360f565b9050919050565b7f546f74616c206d696c6573746f6e652066756e6473206d75737420657175616c60008201527f207468652066756e64696e6720676f616c000000000000000000000000000000602082015250565b60006136ae603183611eef565b91506136b982613652565b604082019050919050565b600060208201905081810360008301526136dd816136a1565b9050919050565b60006080820190506136f96000830187611e94565b818103602083015261370b8186611f3b565b905061371a6040830185611e94565b6137276060830184611e94565b9594505050505056fea2646970667358221220c878add4efdb04433a2f9d56067b6a6be65f1100c8012babd57e46559030a59764736f6c63430008180033",
  "linkReferences": {},
  "deployedLinkReferences": {}
}